{
  "_format": "hh-sol-artifact-1",
  "contractName": "Lot",
  "sourceName": "contracts/Lot.sol",
  "abi": [
    {
      "inputs": [],
      "stateMutability": "nonpayable",
      "type": "constructor"
    },
    {
      "inputs": [
        {
          "internalType": "uint256",
          "name": "campaign",
          "type": "uint256"
        },
        {
          "internalType": "address",
          "name": "candidate",
          "type": "address"
        }
      ],
      "name": "addCandidate",
      "outputs": [
        {
          "internalType": "bool",
          "name": "status",
          "type": "bool"
        }
      ],
      "stateMutability": "nonpayable",
      "type": "function"
    },
    {
      "inputs": [],
      "name": "amount",
      "outputs": [
        {
          "internalType": "uint256",
          "name": "",
          "type": "uint256"
        }
      ],
      "stateMutability": "view",
      "type": "function"
    },
    {
      "inputs": [],
      "name": "balance",
      "outputs": [
        {
          "internalType": "uint256",
          "name": "",
          "type": "uint256"
        }
      ],
      "stateMutability": "view",
      "type": "function"
    },
    {
      "inputs": [
        {
          "internalType": "uint256",
          "name": "campaign",
          "type": "uint256"
        }
      ],
      "name": "closeCampaign",
      "outputs": [
        {
          "internalType": "bool",
          "name": "status",
          "type": "bool"
        }
      ],
      "stateMutability": "nonpayable",
      "type": "function"
    },
    {
      "inputs": [],
      "name": "newCampaign",
      "outputs": [
        {
          "internalType": "uint256",
          "name": "campaignID",
          "type": "uint256"
        }
      ],
      "stateMutability": "nonpayable",
      "type": "function"
    },
    {
      "inputs": [],
      "name": "numCampaigns",
      "outputs": [
        {
          "internalType": "uint256",
          "name": "",
          "type": "uint256"
        }
      ],
      "stateMutability": "view",
      "type": "function"
    },
    {
      "inputs": [],
      "name": "owner",
      "outputs": [
        {
          "internalType": "address",
          "name": "",
          "type": "address"
        }
      ],
      "stateMutability": "view",
      "type": "function"
    },
    {
      "inputs": [],
      "name": "percent",
      "outputs": [
        {
          "internalType": "uint256",
          "name": "",
          "type": "uint256"
        }
      ],
      "stateMutability": "view",
      "type": "function"
    },
    {
      "inputs": [],
      "name": "price",
      "outputs": [
        {
          "internalType": "uint256",
          "name": "",
          "type": "uint256"
        }
      ],
      "stateMutability": "view",
      "type": "function"
    },
    {
      "inputs": [
        {
          "internalType": "uint256",
          "name": "campaign",
          "type": "uint256"
        },
        {
          "internalType": "address",
          "name": "candidate",
          "type": "address"
        }
      ],
      "name": "viewCampaign",
      "outputs": [
        {
          "internalType": "bool",
          "name": "_exist",
          "type": "bool"
        },
        {
          "internalType": "uint256",
          "name": "startDate",
          "type": "uint256"
        },
        {
          "internalType": "bool",
          "name": "isFinished",
          "type": "bool"
        },
        {
          "internalType": "uint256",
          "name": "candidateVote",
          "type": "uint256"
        },
        {
          "internalType": "uint256",
          "name": "maxVote",
          "type": "uint256"
        },
        {
          "internalType": "uint256",
          "name": "campaignBalance",
          "type": "uint256"
        }
      ],
      "stateMutability": "view",
      "type": "function"
    },
    {
      "inputs": [
        {
          "internalType": "uint256",
          "name": "campaign",
          "type": "uint256"
        },
        {
          "internalType": "address",
          "name": "candidate",
          "type": "address"
        }
      ],
      "name": "vote",
      "outputs": [
        {
          "internalType": "bool",
          "name": "status",
          "type": "bool"
        }
      ],
      "stateMutability": "payable",
      "type": "function"
    },
    {
      "inputs": [],
      "name": "voteAddress",
      "outputs": [
        {
          "internalType": "address",
          "name": "",
          "type": "address"
        }
      ],
      "stateMutability": "view",
      "type": "function"
    },
    {
      "inputs": [],
      "name": "withdrawBalance",
      "outputs": [],
      "stateMutability": "nonpayable",
      "type": "function"
    }
  ],
  "bytecode": "0x6080604052600060025567016345785d8a0000600355662386f26fc1000060045567013fbe85edc9000060055534801561003857600080fd5b50336000806101000a81548173ffffffffffffffffffffffffffffffffffffffff021916908373ffffffffffffffffffffffffffffffffffffffff16021790555030600160006101000a81548173ffffffffffffffffffffffffffffffffffffffff021916908373ffffffffffffffffffffffffffffffffffffffff160217905550611782806100c96000396000f3fe6080604052600436106100c25760003560e01c80638da5cb5b1161007f578063b0e1c1e111610059578063b0e1c1e11461024d578063b69ef8a81461028a578063c21b990c146102b5578063c31aeca8146102e0576100c2565b80638da5cb5b146101cc578063a035b1fe146101f7578063aa8c217c14610222576100c2565b806302d947ef146100c75780632c0f7b6f146100f757806333c57ccd146101225780633d6dc9281461015f5780635fd8c7101461018a57806370ba1113146101a1575b600080fd5b6100e160048036038101906100dc91906110a4565b610322565b6040516100ee9190611286565b60405180910390f35b34801561010357600080fd5b5061010c6107d8565b6040516101199190611442565b60405180910390f35b34801561012e57600080fd5b50610149600480360381019061014491906110a4565b6107de565b6040516101569190611286565b60405180910390f35b34801561016b57600080fd5b50610174610ac7565b604051610181919061126b565b60405180910390f35b34801561019657600080fd5b5061019f610aed565b005b3480156101ad57600080fd5b506101b6610c19565b6040516101c39190611442565b60405180910390f35b3480156101d857600080fd5b506101e1610c1f565b6040516101ee919061126b565b60405180910390f35b34801561020357600080fd5b5061020c610c43565b6040516102199190611442565b60405180910390f35b34801561022e57600080fd5b50610237610c49565b6040516102449190611442565b60405180910390f35b34801561025957600080fd5b50610274600480360381019061026f919061107b565b610c4f565b6040516102819190611286565b60405180910390f35b34801561029657600080fd5b5061029f610dd0565b6040516102ac9190611442565b60405180910390f35b3480156102c157600080fd5b506102ca610dd6565b6040516102d79190611442565b60405180910390f35b3480156102ec57600080fd5b50610307600480360381019061030291906110a4565b610eca565b604051610319969594939291906112a1565b60405180910390f35b60006006548310610368576040517f08c379a000000000000000000000000000000000000000000000000000000000815260040161035f906113c2565b60405180910390fd5b600015156007600085815260200190815260200160002060040160009054906101000a900460ff161515146103d2576040517f08c379a00000000000000000000000000000000000000000000000000000000081526004016103c990611302565b60405180910390fd5b600015156007600085815260200190815260200160002060080160003373ffffffffffffffffffffffffffffffffffffffff1673ffffffffffffffffffffffffffffffffffffffff16815260200190815260200160002060009054906101000a900460ff16151514610479576040517f08c379a000000000000000000000000000000000000000000000000000000000815260040161047090611382565b60405180910390fd5b600115156007600085815260200190815260200160002060070160008473ffffffffffffffffffffffffffffffffffffffff1673ffffffffffffffffffffffffffffffffffffffff16815260200190815260200160002060000160009054906101000a900460ff16151514610523576040517f08c379a000000000000000000000000000000000000000000000000000000000815260040161051a90611342565b60405180910390fd5b6003543414610567576040517f08c379a000000000000000000000000000000000000000000000000000000000815260040161055e90611322565b60405180910390fd5b6007600084815260200190815260200160002060070160008373ffffffffffffffffffffffffffffffffffffffff1673ffffffffffffffffffffffffffffffffffffffff16815260200190815260200160002060010160008154809291906105ce9061150c565b91905055506007600084815260200190815260200160002060070160008373ffffffffffffffffffffffffffffffffffffffff1673ffffffffffffffffffffffffffffffffffffffff168152602001908152602001600020600101546007600085815260200190815260200160002060010154101561070e576007600084815260200190815260200160002060070160008373ffffffffffffffffffffffffffffffffffffffff1673ffffffffffffffffffffffffffffffffffffffff168152602001908152602001600020600101546007600085815260200190815260200160002060010181905550816007600085815260200190815260200160002060000160006101000a81548173ffffffffffffffffffffffffffffffffffffffff021916908373ffffffffffffffffffffffffffffffffffffffff1602179055505b6005546007600085815260200190815260200160002060030154610732919061146e565b600760008581526020019081526020016000206003018190555060045460025461075c919061146e565b60028190555060016007600085815260200190815260200160002060080160003373ffffffffffffffffffffffffffffffffffffffff1673ffffffffffffffffffffffffffffffffffffffff16815260200190815260200160002060006101000a81548160ff0219169083151502179055506001905092915050565b60065481565b60003373ffffffffffffffffffffffffffffffffffffffff1660008054906101000a900473ffffffffffffffffffffffffffffffffffffffff1673ffffffffffffffffffffffffffffffffffffffff161461086e576040517f08c379a000000000000000000000000000000000000000000000000000000000815260040161086590611362565b60405180910390fd5b60065483106108b2576040517f08c379a00000000000000000000000000000000000000000000000000000000081526004016108a9906113c2565b60405180910390fd5b600015156007600085815260200190815260200160002060040160009054906101000a900460ff1615151461091c576040517f08c379a000000000000000000000000000000000000000000000000000000000815260040161091390611302565b60405180910390fd5b600015156007600085815260200190815260200160002060070160008473ffffffffffffffffffffffffffffffffffffffff1673ffffffffffffffffffffffffffffffffffffffff16815260200190815260200160002060000160009054906101000a900460ff161515146109c6576040517f08c379a00000000000000000000000000000000000000000000000000000000081526004016109bd90611422565b60405180910390fd5b60006007600085815260200190815260200160002060070160008473ffffffffffffffffffffffffffffffffffffffff1673ffffffffffffffffffffffffffffffffffffffff1681526020019081526020016000206001018190555060016007600085815260200190815260200160002060070160008473ffffffffffffffffffffffffffffffffffffffff1673ffffffffffffffffffffffffffffffffffffffff16815260200190815260200160002060000160006101000a81548160ff021916908315150217905550600760008481526020019081526020016000206006016000815480929190610ab89061150c565b91905055506001905092915050565b600160009054906101000a900473ffffffffffffffffffffffffffffffffffffffff1681565b3373ffffffffffffffffffffffffffffffffffffffff1660008054906101000a900473ffffffffffffffffffffffffffffffffffffffff1673ffffffffffffffffffffffffffffffffffffffff1614610b7b576040517f08c379a0000000000000000000000000000000000000000000000000000000008152600401610b7290611402565b60405180910390fd5b600060025411610bc0576040517f08c379a0000000000000000000000000000000000000000000000000000000008152600401610bb7906113e2565b60405180910390fd5b60003390508073ffffffffffffffffffffffffffffffffffffffff166108fc6002549081150290604051600060405180830381858888f19350505050158015610c0d573d6000803e3d6000fd5b50600060028190555050565b60045481565b60008054906101000a900473ffffffffffffffffffffffffffffffffffffffff1681565b60035481565b60055481565b60006006548210610c95576040517f08c379a0000000000000000000000000000000000000000000000000000000008152600401610c8c906113c2565b60405180910390fd5b600015156007600084815260200190815260200160002060040160009054906101000a900460ff16151514610cff576040517f08c379a0000000000000000000000000000000000000000000000000000000008152600401610cf690611302565b60405180910390fd5b60016007600084815260200190815260200160002060040160006101000a81548160ff02191690831515021790555060006007600084815260200190815260200160002060000160009054906101000a900473ffffffffffffffffffffffffffffffffffffffff1690508073ffffffffffffffffffffffffffffffffffffffff166108fc60076000868152602001908152602001600020600301549081150290604051600060405180830381858888f19350505050158015610dc5573d6000803e3d6000fd5b506001915050919050565b60025481565b60003373ffffffffffffffffffffffffffffffffffffffff1660008054906101000a900473ffffffffffffffffffffffffffffffffffffffff1673ffffffffffffffffffffffffffffffffffffffff1614610e66576040517f08c379a0000000000000000000000000000000000000000000000000000000008152600401610e5d906113a2565b60405180910390fd5b60066000815480929190610e799061150c565b91905055905060006007600083815260200190815260200160002090506000816003018190555042816002018190555060008160040160006101000a81548160ff0219169083151502179055505090565b6000806000806000806006548810610f17576040517f08c379a0000000000000000000000000000000000000000000000000000000008152600401610f0e906113c2565b60405180910390fd5b6007600089815260200190815260200160002060070160008873ffffffffffffffffffffffffffffffffffffffff1673ffffffffffffffffffffffffffffffffffffffff16815260200190815260200160002060000160009054906101000a900460ff16600760008a815260200190815260200160002060020154600760008b815260200190815260200160002060040160009054906101000a900460ff16600760008c815260200190815260200160002060070160008b73ffffffffffffffffffffffffffffffffffffffff1673ffffffffffffffffffffffffffffffffffffffff16815260200190815260200160002060010154600760008d815260200190815260200160002060010154600760008e8152602001908152602001600020600301549550955095509550955095509295509295509295565b6000813590506110608161171e565b92915050565b60008135905061107581611735565b92915050565b60006020828403121561108d57600080fd5b600061109b84828501611066565b91505092915050565b600080604083850312156110b757600080fd5b60006110c585828601611066565b92505060206110d685828601611051565b9150509250929050565b6110e9816114c4565b82525050565b6110f8816114d6565b82525050565b600061110b601a8361145d565b915061111682611584565b602082019050919050565b600061112e60108361145d565b9150611139826115ad565b602082019050919050565b600061115160138361145d565b915061115c826115d6565b602082019050919050565b6000611174601e8361145d565b915061117f826115ff565b602082019050919050565b6000611197600d8361145d565b91506111a282611628565b602082019050919050565b60006111ba601c8361145d565b91506111c582611651565b602082019050919050565b60006111dd60128361145d565b91506111e88261167a565b602082019050919050565b6000611200600c8361145d565b915061120b826116a3565b602082019050919050565b6000611223600a8361145d565b915061122e826116cc565b602082019050919050565b6000611246601a8361145d565b9150611251826116f5565b602082019050919050565b61126581611502565b82525050565b600060208201905061128060008301846110e0565b92915050565b600060208201905061129b60008301846110ef565b92915050565b600060c0820190506112b660008301896110ef565b6112c3602083018861125c565b6112d060408301876110ef565b6112dd606083018661125c565b6112ea608083018561125c565b6112f760a083018461125c565b979650505050505050565b6000602082019050818103600083015261131b816110fe565b9050919050565b6000602082019050818103600083015261133b81611121565b9050919050565b6000602082019050818103600083015261135b81611144565b9050919050565b6000602082019050818103600083015261137b81611167565b9050919050565b6000602082019050818103600083015261139b8161118a565b9050919050565b600060208201905081810360008301526113bb816111ad565b9050919050565b600060208201905081810360008301526113db816111d0565b9050919050565b600060208201905081810360008301526113fb816111f3565b9050919050565b6000602082019050818103600083015261141b81611216565b9050919050565b6000602082019050818103600083015261143b81611239565b9050919050565b6000602082019050611457600083018461125c565b92915050565b600082825260208201905092915050565b600061147982611502565b915061148483611502565b9250827fffffffffffffffffffffffffffffffffffffffffffffffffffffffffffffffff038211156114b9576114b8611555565b5b828201905092915050565b60006114cf826114e2565b9050919050565b60008115159050919050565b600073ffffffffffffffffffffffffffffffffffffffff82169050919050565b6000819050919050565b600061151782611502565b91507fffffffffffffffffffffffffffffffffffffffffffffffffffffffffffffffff82141561154a57611549611555565b5b600182019050919050565b7f4e487b7100000000000000000000000000000000000000000000000000000000600052601160045260246000fd5b7f43616d706169676e20697320616c726561647920636c6f736564000000000000600082015250565b7f416d6f756e7420696e636f727265637400000000000000000000000000000000600082015250565b7f43616e646964617465206e6f7420666f756e6400000000000000000000000000600082015250565b7f4f776e6572206f6e6c792063616e2061646420612063616e6469646174650000600082015250565b7f416c726561647920766f74656400000000000000000000000000000000000000600082015250565b7f4f776e6572206f6e6c792063616e20637265617465206120766f746500000000600082015250565b7f43616d706169676e206e6f7420666f756e640000000000000000000000000000600082015250565b7f42616c616e6365207a65726f0000000000000000000000000000000000000000600082015250565b7f4f776e6572206f6e6c7900000000000000000000000000000000000000000000600082015250565b7f43616e64696461746520697320616c7265616479206164646564000000000000600082015250565b611727816114c4565b811461173257600080fd5b50565b61173e81611502565b811461174957600080fd5b5056fea2646970667358221220893da0c6f029a71210c0545b3d88292da1f9ac22c3327f89b2fb099a224144b464736f6c63430008040033",
  "linkReferences": {},
  "deployedLinkReferences": {}
}